:020000040800F2
:10000000605D00202D2B0008AD620008012B000868
:10001000012B0008012B0008012B00080000000044
:100020000000000000000000000000005126000851
:10003000012B000800000000FD2500080137000822
:1000400009270008092700080927000809270008D0
:1000500009270008092700080927000809270008C0
:1000600009270008092700080927000809270008B0
:1000700009270008092700080927000809270008A0
:100080000927000809270008092700080927000890
:100090000927000809270008092700080927000880
:1000A0000927000809270008092700080927000870
:1000B0000927000809270008092700080927000860
:1000C0000927000809270008092700080927000850
:1000D0000927000809270008092700080927000840
:1000E0000927000809270008092700080927000830
:1000F0000927000809270008092700080927000820
:10010000092700080927000809270008092700080F
:1001100009270008092700080927000809270008FF
:1001200009270008092700080927000809270008EF
:08013000092700080927000857
:1001380053B94AB9002908BF00281CBF4FF0FF3146
:100148004FF0FF3000F06CB9ADF1080C6DE904CE4A
:1001580000F006F8DDF804E0DDE9022304B070479A
:100168002DE9F047089E0D4604468E46002B40F0C8
:1001780082808A42174646D9B2FA82F24AB1C2F15F
:10018800200105FA02F320FA01F1974041EA030E33
:1001980094404FEA1748230CBEFBF8FCB9B208FBA1
:1001A8001CEE43EA0E430CFB01F098420AD9FB18F7
:1001B8000CF1FF3580F01681984240F21381ACF1C2
:1001C800020C3B441B1AA4B2B3FBF8F008FB103333
:1001D80044EA034400FB01F1A14209D93C1900F1AA
:1001E800FF3380F00181A14240F2FE8002383C4496
:1001F800641A40EA0C4000211EB1D4400023C6E92D
:100208000043BDE8F08702B9FFDEB2FA82F2002AA5
:100218004FD1CB1B4FEA174E1FFA87F80121B3FBCA
:10022800FEFC250C0EFB1C3345EA034508FB0CF3CA
:10023800AB4207D97D190CF1FF3002D2AB4200F274
:10024800E7808446ED1AA3B2B5FBFEF00EFB10550D
:1002580043EA054408FB00F8A04507D93C1900F11A
:10026800FF3302D2A04500F2D7801846A4EB080459
:1002780040EA0C40C0E78B4208D9002E00F0AF805E
:100288000021C6E900050846BDE8F087B3FA83F106
:1002980000294BD1AB4202D3824200F2B780841AC4
:1002A80065EB030301209E46002EAAD0C6E9004E46
:1002B800A7E7C2F1200C01FA02F3974020FA0CF0EC
:1002C8004FEA174E21FA0CFC1843BCFBFEF1050C53
:1002D8000EFB11CC1FFA87F845EA0C4501FB08F321
:1002E800AB4204FA02F409D97D1901F1FF3C80F010
:1002F8008B80AB4240F2888002393D44EB1A85B2CC
:10030800B3FBFEF00EFB103345EA034500FB08F390
:10031800AB4207D97D1900F1FF3C71D2AB426FD9CE
:1003280002383D44EB1A40EA014178E7C1F1200C5C
:100338008B4022FA0CF71F4320FA0CF405FA01F35C
:100348004FEA174E25FA0CF51C43230CB5FBFEF9B2
:100358001FFA87F80EFB195543EA054509FB08FA09
:10036800AA4502FA01F200FA01F308D97D1909F148
:10037800FF3047D2AA4545D9A9F102093D44A5EB6A
:100388000A05A4B2B5FBFEF00EFB105544EA05447D
:1003980000FB08F8A04507D93C1900F1FF352DD21C
:1003A800A0452BD902383C4440EA0940A4EB080494
:1003B800A0FB02894C45C6464D4619D316D05EB1FE
:1003C800B3EB0E0264EB050404FA0CFCCA404CEAD9
:1003D8000202CC40C6E900240021BDE8F08731467E
:1003E80030460EE7AC46EDE6184601E74345E6D24F
:1003F800B8EB020E69EB07050138E0E72846D3E7BA
:1004080060468FE78146BAE7614677E708464BE7DB
:10041800ACF1020C3D4415E702383C4426E700BF26
:10042800704700BF10B50F480F4C04F059FA206010
:1004380030B9BDE810400B4A0C48452105F020BCF6
:1004480002698168136843F0200313600B6840F267
:1004580001220521984720680021BDE8104005F0D9
:10046800DDB800BFB6920008D0010020BC92000899
:100478007FB53648492105F003FCFFF7D3FF00F0AC
:100488009BF8334800F07AF828B9314A31484521B9
:1004980005F0F6FBFEE7304804F022FA044602694C
:1004A8008168136823F4005313600B684FF4887253
:1004B8000D219847A36801A95B682046984780B931
:1004C800019B9B040DD4254B0121186805F0A6F863
:1004D8002348492105F0D4FB01F0D6FB214801F05F
:1004E800FFFE01A800F0B2FC1F4B1B68834204D03A
:1004F8001E48452105F0C4FBFEE7039A1C48492124
:1005080005F0BEFB1B48492105F0BAFB69469DF87A
:10051800080000F03FF8009B039C1C44019B1D89C8
:1005280003F0ACF966194FF01002EFF3118382F370
:100538001288BFF36F8F635983F3088873689847ED
:100548000D48452105F09CFBFEE700BFDC92000842
:10055800F592000800930008B6920008D001002028
:100568001F930008388E0008D80100204393000824
:100578006693000895930008BA93000810B5044CD8
:10058800236813B904F0ACF92060206810BD00BFDF
:10059800D401002008B5024638B106480023452199
:1005A80005F06EFB6FF0150008BD4FF000630B609F
:1005B800FAE700BFDD93000802484FF4C05103F08A
:1005C800BFBB00BFCA1700202DE9F04FF9B0DFF814
:1005D800FC91DDF808B2D9F80060DDE9844838A854
:1005E80017461D4607F07EFF002138A803F0B8FC27
:1005F800CDF80C903CB1B8F1000F04DD424621461D
:1006080038A807F073FF7B89B7F808809844FB681F
:100618004FF000099844C8454BD80DA938A807F0F1
:10062800A2FF869B23B120220DA9184605F07BFE68
:10063800002300932A464FF6FF73394607A805F0B2
:1006480003F80446002840F0B680DFF8849180461D
:100658004FF0FF370DF1160305AA06A907A805F004
:100668003FF8041EC0F2A78040F09880BDF816A09D
:10067800BAF1100F34D1BDF81480B8F1200F40F052
:1006880098800699434638AA284605F007FB044691
:10069800002840F09080424638A90DA805F06BF874
:1006A8000446484B1B68834240F085804FF00108A0
:1006B800D0E7839AA8EB09039A4228BF1A46134643
:1006C800924649465A46284605F0E8FA0446002864
:1006D80071D15246594638A807F008FFD1449AE725
:1006E800BAF1010F36D1BDF81430202B61D8069924
:1006F80038AA284605F0D2FA044600285BD19DF8AE
:1007080014A0BAF1200F03D94FF0FF342746A1E710
:10071800D9F800302C4F0293029B9C42F4DA1DA8B2
:1007280007F0E0FE00211DA803F01AFC7B6857F8CB
:10073800081B1A681DA807F0D9FE15A91DA807F0FF
:1007480012FF524638A915A805F0C6FD0028DDD0CD
:100758000134E1E7BAF1200F7FF47CAF7B1C3FF452
:1007680079AFD9F80030BB4215DDBDF81430B3F5C8
:10077800807F1ED1069938AA284605F08FFA0446CC
:10078800C8B9FFB2BDF81430009738AA51460DA871
:1007980000F020F806464FF0FF375BE7B8F1000F8E
:1007A8000DD0084B1B68B34201D0039B1E6834462A
:1007B80001E04FF0FF34204679B0BDE8F08F012406
:1007C800F9E700BFD8010020448E0008000000208F
:1007D800408E00082DE9F04F9846ADF54B7D6B4BE8
:1007E8009DF850631D68074627A88A46914607F07A
:1007F80036FE674B53F83640029403EBC6038AAAC9
:100808005B6819680C443023214602A806F0E7FA11
:1008180068BB029B8A9A13449C4228D129AA214684
:1008280002A806F0F0FA10BB0DF1B00B5A462146AB
:1008380002A806F0E8FA0646C8B929A806F011FF8A
:10084800029B28909C4212D1CDE9006B3346324678
:1008580029A927A807F0BFFD48B927A803F01EFB60
:1008680028B929A806F0FDFE804528900AD027A8B7
:1008780007F0FFFD27A807F0FCFD28460DF54B7D86
:10088800BDE8F08FB8F5807F02D04FF0FF35F1E773
:10089800BAF1200FF9D18AAA494627A803F022FB0A
:1008A80004460028F1D19DF82733BC2BEDD10DF576
:1008B800A4780390DF2645460CA807F013FE002114
:1008C8000CA803F04DFB20220DF207310CA807F00D
:1008D8000DFE042203A90CA807F008FE04A90CA821
:1008E80007F041FE1F2E9DF80F30D4BFB1464FF0E0
:1008F8002009013340464A4604A9A6EB09068DF8AB
:100908000F3005F010FD002EC844D5DC28468AAE0D
:100918002A46DF23117816F801CB013B81EA0C0146
:1009280002F8011BF6D12B7803F07F032B7010F827
:10093800016B002EA9D10134BE2CF8D195F8BE3038
:10094800012BA2D10CA807F0CDFD31460CA803F06D
:1009580007FB104908220CA807F0C8FD39462022D9
:100968000CA807F0C3FD20220DF207210CA807F000
:10097800BDFD04A90CA807F0F6FD20220DF20731F1
:1009880004A804F0F8FE054681E700BF0000002037
:10099800448E0008039400082DE9F04186B040F227
:1009A8000313DFF87080ADF800300D466F4600265F
:1009B80017F8010B01A901F06BF80446A0B90198DA
:1009C8008168102302AA103905F068F904460198D5
:1009D80005F063F944B91022414602A805F07CFCF1
:1009E80040B12EB14FF0FF34204606B0BDE8F0818B
:1009F8000126DDE7019807F04AFE0423A0F108016B
:100A08002A46019805F04AF90446019805F045F987
:100A1800EAE700BF5C9200082DE9F041384B88B046
:100A2800064600200D461C6804F006FE06A9C0B262
:100A380001F02EF8002857D1294604F0FDFD2C249A
:100A480007A9C0B204FB056401F022F8002836D0DB
:100A58004FF02C0808FB05F806EB0807396911F078
:100A6800100137D14FF480730193264B009322462F
:100A7800CDE90311069B02910846FFF7A5FD044640
:100A8800214B56F8082006989A420CD13A89FB68FF
:100A9800D1438B4207D813448268934203D21B4B3D
:100AA8001B68A3421DD045B38268002105F02EF9CA
:100AB800174A1848452105F0E3F8012411E0079882
:100AC80005F044F90746079805F0E7F8631EE21CAD
:100AD80093420DD1002DF0D00699304604F063FF03
:100AE8002C46069805F0D9F8204608B0BDE8F081F4
:100AF80013F8011FB942EBD0AAE7074AD9E700BFAC
:100B080000000020CA2F00203DB8F396D80100202D
:100B18000B9400081D9400081594000873B50D4641
:100B2800044600212846CDE9001104F0F7FE30B351
:100B3800164E2268B24203D101AA204604F054FEA0
:100B4800E36AB34204D16A460121204604F04CFE10
:100B5800DDE90032934288BF0193019BAB60019AA3
:100B68002946204600F0C6FA094B1A68002A03DD18
:100B78000848572105F084F8002002B070BD05F13F
:100B88000801FFF709FFAB680193E8E73DB8F39662
:100B980048120020459400082DE9F04B099FDFF822
:100BA8004CB00E46904699460024BC4201D3002022
:100BB8000EE03D1BB5F5806F28BF4FF480650B4AEA
:100BC8002B4604EB0901304605F068F810B1012006
:100BD800BDE8F08B08992B465A466118404605F047
:100BE80079F80028F3D12C44DFE700BF4802002041
:100BF8002DE9F0438C4B1E688C4B43628C4B03658C
:100C08000F468C4BC365002185B00446084604F0A6
:100C180013FD04F12001C0B200F03AFF01210020C9
:100C280004F00AFD04F14C01C0B200F031FF04F1F8
:100C38005801032000F02CFF0546204604F034FE3E
:100C4800804668B900221146204604F015FE804609
:100C5800F0B179480022572105F012F8012383E00A
:100C680076488022572105F00BF80123984584F82F
:100C78006430E7D194F864308DF80730042B76D8C7
:100C8800012B7AD800F09280FF2384F864308DE03D
:100C9800204600F03BF90028E0D0684604F035FE15
:100CA8006946204604F0D4FE014618B1644842461D
:100CB8005721D1E7684604F031FE804660BB69469B
:100CC8002046FFF72BFF9DF8073084F86430033B7C
:100CD800012B06D8404604F010FF10B1FF2384F81A
:100CE80064309DF80730023B022B0BD8002004F03B
:100CF800F2FE38B1FF2384F864305248452104F0ED
:100D0800BFFFFEE794F86430FF2BF6D06A46002157
:100D1800204604F0B1FDA1E79DF80790B9F1010F55
:100D280017D1084603F042FD831E022B80460DD8DA
:100D380049462046FFF770FE434B1B68984205D092
:100D480001280CBF4FF001084FF0050884F86480B3
:100D580090E701212046FFF75FFE3B4B1B68984256
:100D68000CBF9DF80730052384F8643082E7052B13
:100D78008AD1002004F0C1FE13E069462046FFF73F
:100D8800CDFE94F86430DA1E012A05460CD80020FE
:100D980004F0B3FE054600287FF476AF002004F087
:100DA8009AFE054610B16FE7022BF7D094F864302D
:100DB800FF2B04D12348452104F062FFFEE7012BF5
:100DC80006D06A460021204604F056FD0546D0B9F3
:100DD80000212046FFF720FE0646DFF86C80D8F891
:100DE800003098420FD110220021684605F0A6FA7B
:100DF800206A04F027FC3871236AD8F800605B6821
:100E0800BB603C600025A06D04F047FFE06C04F077
:100E180044FF206A04F041FF002D14BF28463046E5
:100E280005B0BDE8F08300BF0000002048060020A0
:100E3800480E0020480A0020B69400087494000860
:100E4800E29400080C950008D801002038B5064D3A
:100E580004466C220021284605F070FA21462846EF
:100E6800FFF7C6FE38BD00BFDC0100202DE9F74FB3
:100E780081468B46164604F090FC4946824600207F
:100E880004F080FCB0F100083ADB00273C463D4600
:100E9800B84512D16DB1002C08BF44460323B4FBFA
:100EA800F3F35A1C03EB4303E31A01333260337143
:100EB8000025284603B0BDE8F08FDBF86810012351
:100EC8000DF1070201FB07A1484604F0E7FE0028E0
:100ED80018DB01220DF10701484607F0E9FB28B1AC
:100EE80015B1002C08BF3C460137D1E735B1002CBD
:100EF800FAD00548452104F0C3FECFE70125F3E702
:100F08000725D6E70125D4E7189500082DE9F84309
:100F1800D0F828E0BEF1800F04D8D0F854C0BCF156
:100F2800800F06D92848572104F0AAFE0020BDE802
:100F3800F883836DD3F8088000231A4619461E46A5
:100F48001D461C4699468E450AD8944508D88E45B4
:100F580003D1944501D1AE4234D01C485721E3E770
:100F68004C4515D1476A07EBC10701317F6804EB8F
:100F78000709076D07EBC20701327F683C44A145AA
:100F8800E1D1C8454D444E441AD211485721CBE708
:100F98000CD9476A07EBC107022B7F68B94402D115
:100FA8000C485721C0E701310123E8E7076D07EB3B
:100FB800C207012B7F683C44F2D001320223DEE7EE
:100FC8000023BEE70120B2E73B950008D995000849
:100FD800A19500086A95000870B588B006A9012097
:100FE80007F0CBFB04A9032007F0C7FB9DF81820E6
:100FF800012A51D0324B3349032A18BF0B469DF8BA
:101008001B2002929DF81A2001929DF81920009247
:101018002D482E4A492104F033FE9DF81020012A5C
:101028003CD0274B2749032A18BF0B469DF81320AD
:1010380002929DF8122001929DF8112000922248F8
:10104800234A244C492104F01BFE002526469DF81E
:101058001810207807F01EFB30B39DF81010607848
:1010680007F018FB00B3A378042B03D09DF81A20CF
:101078009A4219D106EB8505EC788CB1012C11D078
:10108800154A164B022C18BF1A461548492104F078
:10109800F7FD204608B070BD124BB0E7114BC5E70D
:1010A800114AF2E7114AF0E70135042D04F104046E
:1010B800CDD10F48492104F0E3FD0020EAE700BF45
:1010C8000C960008129600085096000842960008F0
:1010D80091960008C59600082396000830960008E7
:1010E8009996000807960008169600081B960008AF
:1010F800AE9600082DE9F04F00230C468BB005464C
:1011080019461F46914201D3994204D2686A00EBFE
:10111800C70040680144934202D3994240F21881C3
:10112800286D00EBC70091424068034403D39A42FC
:1011380001D8994201D00137E4E7DFF81CA24FF04B
:10114800000BAB6D6A6A9968101D0023994650F828
:1011580037304B44994202D3013FF7D2994623686E
:10116800013B5B4500F2EC807B1CA86E52F83360B3
:101178001368A6EB030804F000FBAB6A696A013B3D
:1011880008EB090251F8333009685B1A9A42236860
:101198008CBFA9EB00064E46012B40F0C280B6EB8F
:1011A800090318BF0123A37105A9012000F070FCF1
:1011B80006A9022000F06CFC07A9032000F068FCD7
:1011C8002379012B40F0AF8007980021826804F052
:1011D800E8FB2368012B16D107992246284604F01C
:1011E80018FCA3797BB905990393284604F0DBFB27
:1011F80005992246284604F00CFC0798039B826850
:10120800194604F0CEFB0023DDE90612009301968F
:1012180043462846FFF7C0FC2146284604F08BFBCE
:101228000223237120B1DAF800300133CAF8003004
:101238004A464146069804F0B4FB4346CDE9008689
:10124800DDE905122846FFF7A7FC2368012B05D125
:10125800A3791BB90699284604F0A5FB2146284620
:1012680004F069FB0323237120B1DAF8003001335D
:10127800CAF800304A464146059804F092FB00231C
:10128800CDE90086059A07992846FFF785FCA379DA
:101298006BB3079804F081FAAA6E07995200464486
:1012A800034601920096059A2846FFF775FC20B17F
:1012B800DAF800300133CAF80030079808A903F0BB
:1012C80025FA9DF82330012B02D1059807F04CFA36
:1012D8009DF82110012903D00598002207F061FA32
:1012E800A168059804F071FA059803F001FA002343
:1012F800A679A3712146284604F01DFB2368013313
:1013080023604FF00103237120B1DAF80030013374
:10131800CAF800305EB107984A46002104F041FB44
:1013280005E000233FE7022B82D0032BA2D00598CB
:1013380004F0B3FC069804F0B0FC079804F0ADFC88
:101348007B1C0BF1010B7FF4FCAE0BB0BDE8F08FFA
:101358009142BFF4EEAEEEE6481200202DE9F043CC
:101368000546079810B91060BDE8F0830324B0FB68
:10137800F4F404EB4407B84218BF0134B4F1804FC9
:1013880005D34FF0FF3313606FF00B00ECE7A400B8
:1013980001348C4200D80DB91460F5E7DFF8BCE0E1
:1013A8002E460024BC4231469C4606F1040603F151
:1013B80003032CD3844225D29CF80060274F0134C4
:1013C800844238BF9CF801304FEAA60C28BF00239E
:1013D80017F80CC081F800C0844207EB131C3CBF0F
:1013E8009B0003F03C034FEA061606F0300638BFB0
:1013F800FB5C1CF806604E7028BF3D238B703D23B4
:10140800CB7004314D1B002015600870ACE713F851
:1014180003CC13F8021C13F8018C4FEAAC094FEA0D
:101428000C1C1EF8099006F8049C0CF0300C0EEB0E
:101438001119890019F80CC006F803CC01F03C0119
:101448000EEB981C08F03F081CF8011006F8021C67
:101458001EF8081006F8011C0334A3E76398000877
:101468002DE9F0434FF0000C079EDFF8288107466E
:1014780065466046B5420AD32E4604E00135AE42C1
:101488000EF1010E05D1A8BB1060BDE8F0834FF046
:10149800000E5C5D202CF1D0AE42F4D0A6EB05091D
:1014A800B9F1010F15D90D2C13D103EB050999F8E2
:1014B8000190B9F10A0F1BD0BEF1000F06D13D2CE7
:1014C80009D10CF1010CBCF1020F07D96FF015001E
:1014D800DBE70A2CEFE714F0800FF7D118F8044087
:1014E8007F2CF3D03F2C02D8BCF1000FEED1013095
:1014F8000135BFE7062500F007046C4304F1070E29
:10150800C4086C43A4EB0C0404EBDE0487B18C42E2
:101518000ED80025DFF87CE0DFF87C801E443946D1
:10152800032428469E4207D1C91B11600020ACE75E
:1015380014606FF00B00A8E713F8019BA9F10A0CDF
:101548005FFA8CFCBCF1160F04D828FA0CFC1CF0CE
:10155800010FE7D11EF809C00130BCF1400F08BFE8
:10156800013C0CF03F0C04284CEA8515DAD17CB11B
:10157800280C012C087002D101310020D2E7022C7E
:101588004FEA1520487016BF8D7002310331F4E719
:101598002046C7E7E3970008090040000B680133BD
:1015A8000B60014B1B6818470400002007B50B4669
:1015B800002102460191034801A900F005F803B093
:1015C8005DF804FBA51500082DE9F04F8FB01F4604
:1015D800531E00908B4601934FF0000A019B5878E8
:1015E800252803F1010422D14FF0000C18464FF0D2
:1015F800FF3602306146CDF808C034464FF00A0E77
:1016080002780190392A00F1010057D81F2A18D80A
:10161800002A00F0F281009B594625209847019B3B
:1016280059461878009B98470AF1020AD6E700281D
:1016380000F0E381009B594698470AF1010A01949A
:10164800CCE7A2F12003192BE5D801A555F823F022
:10165800C11600081F1600081F160008C11600084A
:101668001F160008411700081F1600081F1600085B
:101678001F1600081F16000883170008C116000867
:101688001F160008971700084F1700081F160008B4
:101698005B17000877170008771700087717000806
:1016A80077170008771700087717000877170008DA
:1016B80077170008771700089446A1E7582A00F022
:1016C8003A81A2F16303DDB2172DA4D8172BA2D853
:1016D80001A555F823F000BF99190008BD170008A7
:1016E8001F1600081F1600081F1600089D1700087F
:1016F800BD1700081F1600081F1600089D170008D0
:101708001F1600081F1600081F160008E918000811
:101718001F1600081F1600087B1900081F1600086E
:10172800BD1700081F1600081F160008E918000852
:101738001F1600089D170008009B5946252098474A
:101748000AF1010A4AE7029B03F0FE03029300260E
:1017580056E7002C0BDA002E0BDA029B002B00F068
:10176800488124EAE4740EFB0424303C48E7002E48
:10177800F7DB0EFB0626303E42E7002E57F8043B07
:1017880001DB1E463CE71C1EBFF63AAF644202234B
:10179800029335E7682A03D1682906D148212FE743
:1017A8006C2A02D16C2900F0268100297FF433AF1E
:1017B800114625E77A290ED13B68752A07F10405F9
:1017C800984640F082804FF00009BCF1200F7FD18D
:1017D8008C4F013C15E06C29EED04C29ECD1FD1D55
:1017E80025F00705752AF5E80289EED0B8F1000F53
:1017F80079F10003E9DAD8F10008834F69EB490968
:10180800013C0DAB079300230393039B0693013B15
:101818000393404649460A220023FEF789FC079BAA
:10182800303203F80129404607930A22002349462B
:10183800CDE90489FEF77CFCDDE90423002B08BF11
:101848000A2A80468946E0D2069B0EAAC3F10109FE
:1018580002EB0308002EA8F1040804DA029B13F037
:10186800010F18BF2646A6EB0903002B0393029B22
:10187800D4BFA4EB0904A41B9B0740F1A480AAEBE6
:10188800070606EB070A17F8010B002840F09D80B1
:10189800039E013E40F19D80039B4E4623EAE37779
:1018A800013E40F19B80B9F1000FACBFB94407F18C
:1018B80000092646013E40F19780002CACBF4C44FD
:1018C80009F10004A2442F4688E64FEAE3798DE740
:1018D800BCF12B0F0ABF4D4F4D4F04F1FF3490E779
:1018E800702A28D13D4655F8040B00285AD0494F94
:1018F8000021023C02F06002A2F139090DF1340E18
:101908004FF0000800F00F03092B88BF4B44303319
:1019180000290EF8013908BF10284FEA101308F102
:10192800FF3C43EA01734FEA11121ED20EABC8F115
:10193800010998448EE76C2904D13D46002155F8E9
:10194800040B06E04C29F8D1FD1D25F00705F5E844
:101958000201BCF1230F06D12E4B2F4F12F0200F9E
:1019680018BF1F46C5E72A4FC4E7E0461846114688
:10197800C8E73D4655F8048B404604F09AFC002E13
:10198800814602DBB042A8BFB146214F00266AE774
:101998003D464FF0010955F8043B8DF820300DF114
:1019A8002008F2E7DFF874804FF00509EDE7009BA7
:1019B800594620209847013EF9D524EAE472013CB3
:1019C8009244A41A5BE72646F5E7009B59469847D8
:1019D80057E7009B5946302098475AE718F8010BFB
:1019E800009B594698475BE7009B5946202098473B
:1019F80060E70123CCE64C2102E650460FB0BDE873
:101A0800F08F00BFAE9C0008A3980008A5980008B6
:101A1800A7A00008A7980008AA980008AD98000891
:101A280008B504464FF01002EFF3118382F31288D1
:101A3800BFF36F8F01F022FF204601F089F80348B9
:101A480004F0C2F800F03EFDFCE700BFB3980008C0
:101A58000C4B1A6842F400721A601A6842F48062E9
:101A68001A604FF01002EFF3118382F31288BFF36C
:101A78006F8F83F31188BFF36F8F034B034A1A608C
:101A880000207047004000587C00002000093D00FD
:101A98000C4B1B6870B573B10B4A15680022AA423B
:101AA80002DB6FF0010070BD1C4613F8106B864214
:101AB80004D00132F3E76FF00C00F4E70C6000206B
:101AC800F1E700BF08000020A08E000870B588B0BC
:101AD80005460C46C0B269461646FFF7D9FF0028EE
:101AE8001FDB009BEBB15A6802929A682168D8689C
:101AF8000195CDE903260022CDE90612059202F0F0
:101B0800EFFE0546009804F0C8F86DB1284608496C
:101B180001AA04F0C2FE079808B9059B236008B023
:101B280070BD6FF01500FAE76FF01200F7E700BF1D
:101B3800675D0008F7B5264D286883685B6C03B1BC
:101B48009847286883685B6BA3B9224C224E2868A3
:101B580083689B698BB101220DF107019847012821
:101B68000BD1236893B933684BB91C48452104F05D
:101B780087F802E098470028E7D103B0F0BD716804
:101B88001A6832608B4200D17260236014499DF854
:101B980007700A88B2F5007F084606D22368134406
:101BA80002F1010CA1F800C01F720A2FCFD12368DF
:101BB80002880C495A6000221A604E6826B9C1E9A9
:101BC800003302802260C1E733604B60F9E700BF51
:101BD80074160020541200204C120020DC980008D3
:101BE800C81700206C160020044B10B5044618686E
:101BF8008368E1B25B689847204610BD74160020E0
:101C0800F8B58C46074616464FF01003EFF3118ED1
:101C180083F31288BFF36F8F184C23684BB1184DAC
:101C28006A689A4205D000221A606A6892B9C5E9C2
:101C38000033144B186828B1596802681A60884242
:101C480008BF5A608EF31188BFF36F8F206020B9E8
:101C58003060F8BD13606B60EBE74468A445D8BFFB
:101C68000CF1FF3400F108012246384604F05BFB12
:101C780000233B5501233360E018EAE7581200209F
:101C88004C1200206C1600201D4B37B50025C3E907
:101C980000551C4B1C4A1D4C1D48136003F502716E
:101CA800C3F8085219605160206006F08AFD10B32D
:101CB8002068836823B19B6C13B116492A4698475C
:101CC800206883685B6B0BB1984748B120688368CC
:101CD8009B6903B9FEE701220DF107019847F4E774
:101CE8000D4B206800251D8083689B6A33B1984797
:101CF800284603B030BD4FF0FF30FAE71846F8E742
:101D08006C1600205C1200204C1200207416002073
:101D1800308B00083D1B0008C81700202DE9F04350
:101D2800DFF80C91DFF80C81D9F800103C4F8A8855
:101D3800D3B040F60613ADF80C303A4B1D680B785B
:101D4800A5EB080501330B70C5F3072343EA052308
:101D58004B80130243EA122300208B80487008222C
:101D680003F00FFF2A464146ADF8100003F009FFC3
:101D78003B6840BAADF81000ACB203A85B6802211A
:101D8800984704F10A035BBA0DF11201022206A872
:101D98000226ADF8123004F0C6FAD9F80010ADF8F2
:101DA800126008220DF11A0004F0BDFABDF8120005
:101DB800083006AB80B2ADF812002A4641461844F6
:101DC80004F0B1FABDF81200204406AB80B2ADF8B9
:101DD8001200324604A9184404F0A5FABDF81230DE
:101DE80033449BB205AAADF812300093AD2106AB7F
:101DF80026A8FFF7B3FA05993B68ADF8121026A894
:101E08005B6889B298473B6807485B6831469847E2
:101E18000648492103F034FF53B0BDE8F08300BF02
:101E2800781600200C00002030990008339900082B
:101E38007C160020CA30002037B50E4C05460A2112
:101E4800204604F092F90C4A92E803006B4683E8B6
:101E580003001946204604F061F92946204604F09B
:101E680054F90A21204604F09BF9FFF757FF03B005
:101E780030BD00BF0C000020248E0008F0B50C68AF
:101E8800174F184B85B002380D46C4F50071009005
:101E980003AA38190131FFF7E3FA0446E8B92B68B9
:101EA800039A1344022B2B6014D93A88160246EA87
:101EB8001226B6B2023B9E420CD13246B91C03F040
:101EC80060FE38B9022E05D92B68023B1F442B60EF
:101ED800BC700124204605B0F0BD4FF0FF34F9E78F
:101EE8004A3100204D3300202DE9F04F0729A9B0D1
:101EF800074640F2BA80027812F0FD0540F0B5803E
:101F08004288130243EA1223A1F108069BB2B342A6
:101F1800C0F0AB807B4B7C4C18608088030243EA9E
:101F2800102398B2794B2360012803F18003B8800D
:101F3800E36040F0BA8197F80780B8F1000F07D046
:101F4800B8F1010F00F0A5800820FFF775FF8CE0BD
:101F58000146204604F009F96D4B089308A90623A9
:101F68002046099304F0DAF80521204604F0F1F838
:101F78004546684FDFF8BC812946002003F05CFB2A
:101F880007A9C0B2FFF784FD0646002862D12023C6
:101F9800014610AA079803F081FE109BBB4269D046
:101FA8005D4B1E68079803F078FED8F80030B342FE
:101FB80050D11421204604F0D8F8584B0A930AA9A6
:101FC800042320460B9304F0A9F82946204604F080
:101FD8009CF8534B0C930DF1600907230CA920467C
:101FE8000D9304F09BF89DF85410484603F0E3FE67
:101FF80028AB461C18444FF02E0A9DF8551000F8DF
:1020080040AC09EB060003F0D6FE28AB3044461C72
:102018001844BDF8561000F840AC09EB060003F070
:10202800CAFE28AB064433440136169903F840AC7F
:1020380009EB060003F0BFFE4846CDF8389004F0DF
:1020480038F90EA90F90204604F068F814212046AC
:1020580004F0A6F865B105212B4804F09EF829463E
:10206800294804F09DF8FFF759FE29B0BDE8F08F24
:10207800012581E74023019318ABCDE90366029659
:1020880000933146079B10AA3046FEF79DFA064694
:1020980088E70CAB18AA314607F108000A9500F04A
:1020A800FDF9002848D103252A461E48492103F096
:1020B800E7FD0A21144804F058F81B4B109310A9A7
:1020C80002231148119304F029F80F48294604F017
:1020D8001CF865B9154B0E930EA903230A480F93F4
:1020E80004F01CF8124B0848196804F00EF80A218D
:1020F800054804F055F8FFF711FE0A9803F0CDFDE6
:10210800B3E700BF7C1600200C000020CA30002076
:102118001A9900083DB8F396000000202B96000895
:10212800219900085B990008299900082C99000852
:1021380080160020D80100200C9B9E42B3D14FF09E
:10214800FF384FF0FF39DDF89CC018AB2A46284607
:102158002C4646464F46AB46624540F082807B1C83
:1021680008BFB6F1FF3F9ED0BBF1000F9BD0002106
:1021780003F062FA0AA9C0B2FFF78AFC05460028F4
:1021880091D156EA0703DFF854A112D1CAF800002A
:102198000A9883680022434572EB090283DB1A46DA
:1021A800294603F0B3FD00287FF47DAF494BC3F8FF
:1021B8000080DAF800300021B94208BFB3427FF44A
:1021C80073AF444F3A68234493423FF66CAF0A9882
:1021D80003F0B3FDDAF800203B68B4FBF0F6111900
:1021E80006FB10409942C6B202D20EB1A41B0026CB
:1021F80039481319492103F043FD002E4FD0A71B7E
:1022080045D0DAF800100A983B465A4603F062FDBA
:1022180000287FF448AFDAF800303B44CAF80030B1
:10222800BB4434463246594610A804F07CF80A9854
:1022380003F08CFD10AB0146C6F10802981904F0B2
:102248007DF80A9EDAF80070304603F076FD10AA91
:1022580003463946304603F03DFD00287FF423AF9E
:1022680017E0197A032904D8DFE801F00206090EFD
:10227800186801320C336FE7D3E900B4F9E719683D
:1022880088464FEAE179F4E71E68F717F1E7002C72
:10229800C8D1DAF800301C44CAF8004004E7DAF87C
:1022A80000100A9823465A46D5E700287FF44CAE1A
:1022B800FB79012B3FF449AE052B7FF445AEFFF7C0
:1022C800BBFD40F6C410002102F0ACFF0120FFF76F
:1022D800A7FB00BF901600203B990008801600203D
:1022E8002DE9F3411B4B1C4FDFF870801860002468
:1022F800054600943E46C4F500712B6801AA0131D9
:10230800381998470028019B01DC002BF3D00444BE
:102318002BB940F201239C42EDD10024EBE733783E
:10232800062B09D17378092B0BD10023009369463A
:10233800A01EFFF7A3FD04E0042B02D17378142B31
:10234800F5D00128E9D1009940460239FFF7CCFDC4
:10235800E3E700BF781600204B3300204C31002003
:1023680030B585B005460C4603F013FE20B90024AD
:1023780004F0010005B030BD0C23CDE9014304F1A0
:102388003C02064B00950521012003F012FE04468D
:10239800284603F00CFE0028E9D0E9E7A923000845
:1023A80073B504460E4603F038FF054638B3364B7E
:1023B8000093694605232046019303F0E7FD38B1F1
:1023C8003146204603F096FD10B10023337240E0F9
:1023D800204603F025FFA8B12C4B0093694604233F
:1023E8002046019303F0D2FD60B13146204603F048
:1023F800CAFD38B101253572204603F015FF28467D
:1024080002B070BD204603F00BFF78B1204B00935B
:10241800694603232046019303F0B8FD30B13146E5
:10242800204603F067FD08B10223CFE7204603F0FA
:10243800F7FE80B1174B00930325694620460195A6
:1024480003F0A4FD38B13146204603F053FD10B126
:1024580035720125D0E7204603F0E2FE08B90025D1
:10246800CAE70D4B0093694603232046019303F006
:102478008DFD0028F3D03146204603F084FD002866
:10248800EDD00423A2E700BF4A9600086999000826
:102498006E9900082C990008729900081FB54FF032
:1024A800020C0124CDE9014C024C009403F0C0FE5B
:1024B80004B010BD69230008014910220A60704762
:1024C80010ED00E072B6404080F31188BFF36F8FC3
:1024D800BFF34F8F30BF62B6BFF36F8F704700BF37
:1024E80037B505460C46C9B18B680093D1E900237E
:1024F8000E48452103F0C4FB63690093D4E9032324
:102508000B48452103F0BCFBE2690A48452103F06A
:10251800B7FBA2690848452103F0B2FB21462846CB
:1025280003B0BDE8304002F013BA00BF7699000846
:10253800AA990008DE990008F299000843B2002B16
:1025480008DB012200F01F0002FA00F05B09024AD2
:1025580042F82300704700BF00E100E043B2002BBF
:10256800A8BF03F1604301F10101B8BF064B4FEA70
:102578000111ACBF03F5614300F00F00C9B2B4BF4D
:10258800195483F80013704714ED00E030BFFFF7CB
:10259800FDBF00BF08B5084B084A23F07F039360CE
:1025A800BFF34F8FBFF36F8F02F064FA02F0AAFEF9
:1025B80000F0ACFA02F068FA0000000800ED00E054
:1025C800094A0A49936809689967094958674B682D
:1025D80043F080534B60002383F31188BFF36F8F60
:1025E8009368986F704700BF941700208092000886
:1025F80000ED00E012498A684FF030001044EFF314
:10260800098C80E8F01F102080F31288BFF36F8FC9
:102618000C4F4FF000668A698A603E60506F002355
:10262800536780F3118804B5104600F0C1FABDE87D
:10263800044002F1300090E8F01F8CF309887047DD
:102648009417002004ED00E01EF0040F0CBFEFF318
:102658000880EFF30980816911F8021C0229FFD074
:1026680001B503F017FE01BD42F8203C009B42F87B
:102678001C3C0A49019B42F8183C029B42F8143C56
:1026880021F001014FF0807342F8043C42F8081C25
:102698000023203A02654367704700BF6F5C00085B
:1026A8000B4A0346906890B113F1160F406E05D09F
:1026B800A0F120029A4206D8834204D281422CBF5C
:1026C8000021012100E00021002908BF00207047F7
:1026D8009417002008B5094B98600D46144600F081
:1026E80067FA204685F30988002163B681F31188CB
:1026F800BFF36F8F0022002303F0B5FA9417002070
:1027080001B5EFF30580A0F110004FEAC0000449BD
:10271800014409C99847BDE801400249084700003B
:10272800908B000831270008044B99689869884203
:1027380003D003494FF080520A6070479417002075
:1027480004ED00E02DE9F0412B4C074688462B4864
:102758004521154603F094FAA26AD00603D5284805
:10276800452103F08DFAA36A190703D525484521A9
:1027780003F086FA204CA36A9A0719D46FF015065D
:102788001D4CA36AD80703D51F48452103F078FAE2
:10279800A36AD90621D4A36A9A071ED40020164A30
:1027A800936A43F0FF03936200232B70BDE8F08126
:1027B8001648452103F064FA666BA36A1B06DDD54B
:1027C80013483246452103F05BFAB8F1000FD7D021
:1027D800A36A23F08003A362D2E7074B5B681B055B
:1027E800DCD539463046FFF75BFF0028D6D080F3AA
:1027F80009880220D3E700BF00ED00E0259A000811
:10280800409A0008789A0008C89A0008909A000828
:10281800AD9A000870B5204C06460D461F48452164
:1028280003F02EFAA26AD30403D51D48452103F00C
:1028380027FAA36A1C0503D51A48452103F020FA94
:10284800154CA36A980510D54521174803F018FAC6
:10285800A26BA36A190408D51448452103F010FA9D
:102868001EB1A36A23F40043A3620B4CA26A52056B
:1028780003D50F48452103F003FAA36ADB0503D506
:102888000C48452103F0FCF9034A936A002043F4FD
:102898007F439362287070BD00ED00E0EC9A000859
:1028A800079B0008789A00081D9B00083B9B0008BE
:1028B800559B0008759B000810B51D4C1D48452107
:1028C80003F0DEF9A26A930103D51B48452103F002
:1028D800D7F9A36ADC0103D51848452103F0D0F9DC
:1028E800134CA26A100303D51548452103F0C8F913
:1028F800A36A590303D51348452103F0C1F90C4CC9
:10290800A26A920303D51048452103F0B9F9A36AD6
:10291800DB0303D50D48452103F0B2F9044A936A55
:102928006FEA03436FEA13439362002010BD00BFB0
:1029380000ED00E0929B0008AF9B0008C79B0008D1
:10294800E69B0008099C0008339C0008529C00087C
:102958002DE9F041574BD3F804808AB00D46C8F3EF
:102968000807002686F31188BFF36F8F02F07F43B4
:10297800B3F17F4F07D102F00C03082B05D14E4865
:10298800452103F07DF9354603E0120701D40546D9
:1029980001260022F91E8DF807201446092977D848
:1029A800DFE801F0056B6F687676767676734348D4
:1029B800452103F065F93F4B8DF80740DC6A14F0B8
:1029C800020405D03E48452103F05AF9002406E0E8
:1029D800DA6A002A1DDA3B48452103F051F99DF8CF
:1029E80007309BB92022294602A803F09CFC099BCA
:1029F800002E5AD0C3F3080222B96FEA53236FEAB4
:102A08004323099302A92046FFF76AFD0AB0BDE8EF
:102A1800F081DB6A5B00E2D52B48452103F030F9F1
:102A2800AB6933F8022C4DF602739A420DD003F1CC
:102A3800604303F626631B7873B10DF10702012189
:102A48002846FFF77FFE0446C9E72A681F48452144
:102A580003F016F92C68C2E71D4B1B782BB10DF15A
:102A680007010120FFF7D6FEEDE71A4B1B889BB242
:102A7800002BB4D0FFF720FFE5E70DF10702002196
:102A8800DEE70DF107010020ECE7134845219BE73D
:102A98001249134A134818F4F87F08BF0A46A7F1E9
:102AA8001003452103F0ECF890E723F4FF7323F0BB
:102AB8000103A6E700ED00E0B09C0008E09C0008D8
:102AC800FC9C0008229D0008359D0008599D0008BF
:102AD80029ED00E02AED00E07A9D0008829C0008BC
:102AE800979C0008A39D0008024A536943F010030D
:102AF8005361704700ED00E0EFF30880EFF30981C0
:102B080001B57246FFF724FF01BD00BF044800234A
:102B18001021C21801333E2B82F80013F9D17047F7
:102B280000E100E0102080F3118808484FF40261AA
:102B3800401880F30988EFF314800221084380F3DA
:102B48001488BFF36F8FFFF725FD0000A05E0020FB
:102B5800BFF34F8F0549064BCA6802F4E06213437E
:102B6800CB60BFF34F8F00BFFDE700BF00ED00E073
:102B78000400FA05064B9B68834207D1EFF30583EF
:102B880023B1044A536843F08053536002F068BB92
:102B98009417002000ED00E0024B034A034801218E
:102BA80000F074B80000012000000020A48E000886
:102BB800426E054B203A1A60044A2021C3E90112EB
:102BC8001846012100F06CB89416002000000B157F
:102BD800F8B5224F154600228A420EDA4468002CC6
:102BE80039D093B104F1FF3C14EA0C0F07D01C480C
:102BF800452103F045F86FF015052846F8BD1F2C50
:102C0800F5D906681CEA060FF1D1202C0668D0F821
:102C180008C0EDB210D9B4F1004F0FD8013CB4FA96
:102C280084F4C4F11F046400072D4CEA040407D996
:102C38000C482A464521DCE70824F5E73E24F3E75B
:102C480026F01F062E4346F0100644F00104BD602E
:102C5800FE6001353C6101320C30BDE790ED00E0CB
:102C6800BF9D0008E79D0008034B05225A60BFF38B
:102C78004F8FBFF36F8F704790ED00E0BFF35F8F0A
:102C8800014B00225A60704790ED00E010B5034CEC
:102C980001232278FFF79CFF207010BD4C350020DF
:102CA80008B5084A00231278FFF792FF10F1160FB3
:102CB80003D0054B0022072800DD08BD98601A6183
:102CC8000130F8E74C35002090ED00E01349086822
:102CD800082810B51ED8FFF7D1FF114C496800220B
:102CE800904201F10C0105D10E4B1870FFF7BCFFA3
:102CF800002010BDA26051F80C3C23F01F031343C1
:102D080043F01003E36051F8043C43F001032361EE
:102D18000132E5E74FF0FF30EBE700BFB08E000867
:102D280090ED00E04C3500202DE9F8430D4F0446A6
:102D38000E4615464FF0010802F10409B44201DBC2
:102D4800BDE8F883FA6808FA04F333EA020207D107
:102D5800FB6055F834301BB159F8341020469847B9
:102D68000134EBE700080058054A0123D2F8801027
:102D780083400B43C2F88030024B1856FFF7DEBB86
:102D8800000800583F9E00081F2809DC0549012259
:102D9800D1F8803002FA00F023EA0000C1F8800080
:102DA800704700BF0008005803290FD8DFE801F07A
:102DB800020F1723154B0122196802FA00F021EAC5
:102DC800000119605A6822EA000058607047012320
:102DD80003FA00F00D4B1A6802431A60F2E7012368
:102DE80003FA00F0094B5A6802435A601A6822EA4B
:102DF800000018607047012303FA00F0034B1A68BB
:102E080002431A605A681043DFE700BF0008005801
:102E1800074B10B5044653F8300028B943F834106E
:102E280003EBC4035A6010BD6FF00F00FBE700BF4F
:102E3800A0160020034B002243F8302003EBC00308
:102E48005A607047A016002009680A290AD8012389
:102E58008B4040F25F410B4204D0044B1B68136067
:102E6800002070476FF08500704700BF7C0000208D
:102E780070B54FF0B04403F058FB00F045FDD4F8AE
:102E880008312D4A2D4903F00F03CD6A52F823600B
:102E98001368B0FBF6F6B5FBF3F5AE4202D228464E
:102EA80000F0AAFD236843F008032360236823F099
:102EB800F00343F0B003236023689A0708D423681B
:102EC80043F0010323604FF0B04213689B07FCD521
:102ED8004FF0B044A36823F00303A360A36823F072
:102EE800F003A360A36813F00C0FFBD1284600F091
:102EF8007DFDA36823F4E063A360A36823F4605313
:102F0800A360D4F80831AE4223F00F03C4F80831A7
:102F180002D3284600F070FD4FF0B04300201A6835
:102F280022F480321A601A6822F480721A601A68D1
:102F380022F080721A6070BDDC9000081C910008B5
:102F480038B50369586045680C35084C204605F0CB
:102F580038FC38B1A36829461B682046984700EA20
:102F6800E07038BD6FF01200F9E700BF708A000802
:102F7800F8B50C461146B1F5005F476802691E4670
:102F880024D104F0030304339A000F23934043EA47
:102F9800940303F003022F49023251F82220190C3E
:102FA80002EA134391FAA1F2B2FA82F2D340BA6864
:102FB8009A4209D12046FFF7E7FE2046FFF73AFF7D
:102FC80000212046FFF7F0FE002537E0B1F5804FDD
:102FD8003AD021492046FFF71BFF0546B8BB04F04D
:102FE800030304339A000F23934043EA940303F046
:102FF8000302920002F1804202F58032B8689768B5
:10300800190C91FAA1F1B1FA81F101F00F0127EA47
:10301800134300FA01F10B43B6F5802F93600FD0EC
:10302800B6F5C02F0ED0B6F5003F14BF002102211F
:103038002046FFF7B9FE2046FFF796FE2846F8BD62
:103048000121F5E70321F3E76FF08505F6E76FF057
:103058000F05F3E70000014035650008F8B545683D
:103068000646E86805F0ADFB78B9EB681D481A68B4
:10307800452102F005FE6FF0120532681A482B460A
:10308800492102F0FDFD2846F8BD2C7D6B7CE868DF
:10309800297C14F0030416BF4FF4D0524FF4B052F9
:1030A8006C681343D0F810C0D0F808E0DCF8005082
:1030B800DA0748BF83F44063012723F480528F4026
:1030C800DB074CBF3D43BD43CCF80050DEF8003071
:1030D800984705460028D0D1002CCED0204602F0D3
:1030E80085FACAE76F9E00088C9E00080048704762
:1030F800908F000870B51C461646002322460D46E0
:1031080003F000FC40B90A4823462A46452102F04C
:10311800B7FD6FF0150070BD3CB1224605F10061A6
:10312800304603F000F90020F5E72046F3E700BF3A
:10313800C69E000810B504460069043001221146F5
:1031480005F060FB03F0DCFB00280ADB23691B6841
:103158005A69002ABFBF034A9A6002F188329A600E
:10316800002010BD23016745D0B5044605F033FCA7
:103178000A220023FCF7DCFF23691B681A6910F197
:10318800320644F2FA3341F100071A4212D06FF0C6
:10319800040015E005F01FFC00230A22FCF7C8FF15
:1031A800864277EB010305DA06483222452102F010
:1031B80067FDECE723691B68186910F4A020E9D1C2
:1031C800D0BD00BFF59E0008F8B51C461746012380
:1031D800224605460E4603F095FB48B923461B4890
:1031E8003246452102F04CFD6FF015042046F8BD2B
:1031F800002CFBD0286903F07CFB2B691B685A69FB
:10320800002ABFBF124A9A6002F188329A6031469A
:1032180023463A46284603F0ECFB2B690446284629
:103228001F68FFF7A1FF064658B12869043001F06E
:103238001BFD2869002C08BF3446043001F014FD3A
:10324800D4E77B6943F000437B61F2E70B9F0008FA
:1032580023016745F8B5012305460E46144603F0D9
:1032680051FB48B923461B483246452102F008FD68
:103278006FF015042046F8BD002CFBD0286903F038
:1032880038FB2B691B685A69002ABFBF124A9A602B
:1032980002F188329A6031462246284603F04EFBF6
:1032A8002B69044628461F68FFF75EFF064658B19B
:1032B8002869043001F0D8FC2869002C08BF34467E
:1032C800043001F0D1FCD5E77B6943F000437B6112
:1032D800F2E700BF3B9F000823016745074B1868CA
:1032E80038B907480068C0F34E0018604FF4006012
:1032F80058600B6001231360704700BF68170020F7
:10330800E075FF1F43681B6803F1080252E8002FAD
:1033180042F0010203F1080040E800210029F3D13E
:10332800094A934203D0A2F57442934203D15A68E2
:1033380042F040025A6053E8002F42F4807243E89A
:1033480000210029F7D170470038014043681B6805
:1033580003F1080252E8002F22F0010203F10800ED
:1033680040E800210029F3D1094A934203D0A2F58D
:103378007442934203D15A6822F040025A6053E8DB
:10338800002F22F4807243E800210029F7D170470A
:10339800003801402DE9F347036947685D6857F82D
:1033A8000C6B0C46284605F00CFA88B3AB68DB6852
:1033B80073B301AA394628469847002828DB214BD1
:1033C800019D9E4227D14FF0000ADFF87C80DFF88C
:1033D8007C906608574638F8022B002328460021BF
:1033E800FCF7A6FE4FEA012C4FEA002E4CEA106CBF
:1033F80016EB0E004FF000034AEB0C012246FCF7D7
:1034080097FEA0F540734B4512D901370C2FE2D136
:1034180002B0BDE8F087336823F400433360002C22
:10342800F6D005EB5405B5FBF4F4A4B2F460EFE76D
:10343800044AD36A23F00F033B43D362002CE7D03E
:10344800D060E5E7008000409E920008FFFC0F0076
:103458002DE9F74346680769DFF8E080B14605467D
:1034680059F80C4BC7F80480404605F0AAF920B972
:103478006FF0040003B0BDE8F083D8F80830404688
:103488001B684946984780460028F1D1014601AAA1
:10349800306A03F042FC0028ECDB019B42461979B4
:1034A800186800F0F3F90028E4DB236823F001032F
:1034B800236054E8003F43F00C0344E80032002A3C
:1034C800F7D1B369022B33D0012B0ABF4FF48051D7
:1034D80000214FF4C062236823F0805323F4B053D3
:1034E8000A4313432360636823F440536360337DC6
:1034F8002BB16B681A68936843F44073936039681A
:103508002846FFF747FF337F1BB1A36843F0080342
:10351800A360236843F001032360E3699A02FCD5A2
:10352800E3695B02FCD52846B36898470020A1E709
:103538004FF480514FF48062CDE700BF708A0008D5
:103548002DE9F047436806691C680B79012B0D4685
:103558001BD0022B0CBF4FF48061002195F8059019
:10356800B9F1020F9CBF444A32F819E0AA7988BF22
:103578004FF4005E022A0BD0042A77D0002B14BF28
:103588004FF4805C4FF0000C08E04FF4C061E5E7B1
:10359800002B0CBF4FF0805C4FF0000C95F80780B3
:1035A800A3F1030AB8F1010F14BF00274FF44077C5
:1035B800BAF1010F5DD90BB1042A5AD02F4B9C42A6
:1035C80002D119F0FD0F54D0012A52D9042A50D043
:1035D800B8F1000F0DD02A4B9C4207D0A3F57443D5
:1035E8009C4203D003F570539C4242D1B8F1010FBD
:1035F8003FD1236823F001032360236803F4C063E9
:103608008B421FBF236823F4C0630B4323606368A6
:1036180003F440539E451FBF616821F4405141EABD
:103628000E0161602368296803F0102363451FBFFA
:10363800226822F0102242EA0C022260A36803F4F6
:1036480040739F421FBFA36823F440733B43A360AA
:103658003368994203D0FFF79DFE2B6833602368D7
:1036680043F0010323600020BDE8F0874FF4805C3D
:1036780094E76FF08500F7E7989200080080004013
:10368800003801400B4B9A68196898680A4B11F486
:10369800803F10B5094901D1824205D21A680C68E9
:1036A80022441A60034A12681B680A681344181AED
:1036B80010BD00BF10E000E07C1700207817002044
:1036C800094B102283F82320084B41F2BF221A60CD
:1036D800074B00201860074B5A6098601A6842F040
:1036E80007021A60704700BF00ED00E0781700205D
:1036F8007C17002010E000E008B5FFF7C3FF0C4B73
:103708000C4A186811680844106000221A600A4AB6
:1037180011684FF49653401AB0FBF3F003FB001303
:10372800136001F0DDFEBDE80840FEF7FDBF00BFF5
:103738007C1700207417002070170020F8B52F4D53
:1037480051B1421C08D12E4A136823F001031360BB
:103758004FF07F432B60F8BD431C2E6824D001280E
:1037680025DD40F6A654A04200DC441E4FF01003AD
:10377800EFF3118783F31288BFF36F8FFFF782FF90
:103788001F4B204A9968136818441F4B10604FF06C
:10379800000CC3F800C01D4B1B68B0EB030E08D526
:1037A8004FF480632B6017E040F6A650DDE7002455
:1037B800DCE74FF4965C0CFB04E404F595541B1A03
:1037C8001F34B4FBFCF40CFB0433B3F5806FE7D96A
:1037D8000F4CA342E6D92C60094C2D68A368994286
:1037E80038BF8919013DC91A656008440025A560DC
:1037F800106087F31188BFF36F8FACE7781700204C
:1038080010E000E0741700207C17002070170020DB
:1038180080E8FF0010B54FF01003EFF3118483F335
:103828001288BFF36F8FFFF72DFF074B074A1B68FE
:1038380012689B1A034484F31188BFF36F8F4FF407
:103848009650B3FBF0F010BD7417002070170020DD
:1038580010B54FF01003EFF3118483F31288BFF310
:103868006F8FFFF70FFF044B1B68184484F3118810
:10387800BFF36F8F10BD00BF74170020024A136892
:1038880023F001031360704710E000E02DE9F047D2
:103898001C4F044600EBC1060025B44201D10020AC
:1038A80014E02068C30600F01F0911D4656845F0CC
:1038B8002005C0F3471AC0F343200A281ED857F83A
:1038C8002080B8F1000F08D16FF01200BDE8F08732
:1038D800B9F1100F08BF3025EBE7404604F071FF3F
:1038E8000028F1D04B462A460AF00F01404602F064
:1038F80040FF002804F10804CFDAE7E76FF015006D
:10390800E4E700BFB09000084FF0B04310B59A68E4
:10391800D96812F00C0205D00C2A4AD101F0030331
:10392800012B54D14FF0B0412C480B6813F0080319
:1039380006D00B6813F0080337D1D1F8941007E0CC
:103948000C68240756BFD1F894300968C3F30323E1
:1039580050F82330002A0CBF184600204FF0B04121
:103968008A6802F00C020C2A1ED1CA6802F003020F
:10397800022A31D0032A06D10B68194813F4801F94
:10398800184B18BF03464FF0B040C168C268C06802
:10399800C1F30621C2F30212400F4B43013201303A
:1039A800B3FBF2F3B3FBF0F010BD0B68C3F30313E2
:1039B800CEE7042A08D0082A09D11B6813F480131B
:1039C80008D007480023C9E707480023C6E70023B3
:1039D8001846C3E70348C1E7034BD4E71C91000826
:1039E80000093D0000127A000024F400014B186021
:1039F800704700BF7C0000201F4A034607CA84B0F6
:103A08000DF1100C0CE90700184633B31B4B1B686B
:103A180003F4C063B3F5007F22D1194B98421CD838
:103A2800184B984224D9184B984294BF0120022081
:103A3800164904AB03EB80000B6850F80C2C23F0FC
:103A4800070313430B600B6803F007039A4211D076
:103A58000B6803F007039A420CD0002004B07047AB
:103A68000B4B9842F9D80B4B984201D90A4BDBE72C
:103A78000020DDE70120F1E72C8E00080004005843
:103A8800006CDC0280A81201005125020040005899
:103A98000024F400808D5B00001BB70001680E4A0B
:103AA8009142034615D1C169A2F11022A2F1EF1289
:103AB80091420ED18268012A0BD8C26812B10169FD
:103AC8008A4206D0586928B19B691B1A5842584146
:103AD80070470120704700BF55AA00FF0D4B70B515
:103AE8009E68A6B13046FFF7D9FF044678B9F36857
:103AF8006BB935690DB9204670BD2846FFF7CEFF72
:103B080028B9EB68B34202D12E462D69F2E70124A9
:103B1800F1E700BF801700202DE9F843404D2C68DD
:103B2800D4B1AC68C4B100284DD000294BD001FBFA
:103B380000F6B6FBF0F0884245D1301D43D8B107F6
:103B48000DD026F003070437EC6803E06368BB4236
:103B58003BD2A469002CF9D12046BDE8F88337464A
:103B6800F2E7E86044E007F1200C04EB0C0320398D
:103B780059600021C3E90214DFF8ACE0216919613A
:103B880044F80CE0DFF8A4C0C3F81CC001B1CB6056
:103B9800C3E90520AAB193619A6902B1536123610F
:103BA8000023C4E905332B694FF00109DB07C4E999
:103BB80001792DD5FFF792FF50B31A4B48461B6881
:103BC80025E0EB60E8E70024C6E7A3681BB1154BC6
:103BD80001201B6898476168C91B2329D4E905207F
:103BE80004F12008BFD80123A360002AB9D090614E
:103BF800A36903B15A610023C4E905332B69DA07C5
:103C080006D5FFF76BFF18B1064B1B6801209847D4
:103C1800324600214046444602F090FB9CE700BF34
:103C2800801700208400002055AA00FF669911EE35
:103C38002DE9F041054600287CD03F4E3368002B23
:103C480078D0B268002A75D0834203D872681344CA
:103C5800984203D3394B01201B689847A5F12004EB
:103C68002046FFF71BFF18B1344B01201B6898470B
:103C780055F8183C012B03D0304B01201B6898479E
:103C880055F8147C002345F8183CAFB1BA6892B9CE
:103C980055F81C3C03F120027B6813447B6055F8FF
:103CA800103C3B6103B1DF6020462022002102F076
:103CB80045FB23463C461F462069002832D08368CE
:103CC800002B2FD16368426820331344D4E90521BF
:103CD800636003692361DAB901BB42698169626182
:103CE800A161EAB19461A26902B1546103B1DC60D7
:103CF8002022002102F022FB33699B071AD5FFF727
:103D0800EDFEB8B10D4BBDE8F0411B680120184726
:103D18009161A1690029E0D04A61DEE7F160F8E726
:103D2800F460E0E7002FE7D1F368A36103B15C61B9
:103D3800F460E1E7BDE8F0818017002084000020EE
:103D480038B514220D4604460021124802F0F6FA4E
:103D58001149124800F032F8232D1AD914F0030340
:103D68001FBF043DED18C3F10403E4182A460021DF
:103D7800204602F0E3FA074B094A9C60C3E9004574
:103D88002260A2F11022203DA2F1EF126560E261EB
:103D9800DC6038BD80170020393C0008213B000852
:103DA80055AA00FF014B1B68184700BF8000002080
:103DB800014B1B68184700BF88000020024B1860A1
:103DC800024B002019607047800000208800002006
:103DD8000A4619B1024B00211B681847704700BFFB
:103DE8008C000020F8B500F1080647680446304604
:103DF8000D4603F036FC874216D16368B3F5807F21
:103E080012D80021304603F08CFD00280CDD00217B
:103E1800304603F0F9FB38B145B9002104F114002C
:103E280003F07FFD00281EDC1B481EE004F12C0671
:103E38000021304603F075FD0028F5DD00213046ED
:103E480003F0E2FB0028EFD004F1380600213046E9
:103E580003F067FD0028E7DD0021304603F0D4FBBE
:103E68000028DAD1E0E70DB90020F8BD002104F1FF
:103E7800440003F056FD0028D6DD002104F150006F
:103E880003F04FFD0028CFDD002104F15C0003F0B2
:103E980048FD0028E8DCC7E780BFFFFF70B50021B8
:103EA8000446FFF79FFF0546B8B904F108063046F7
:103EB80003F0BBFB7F2810D914342946204603F0B1
:103EC800A3FB50B1204603F0B0FB012805D93146C9
:103ED800204603F0E3FC002800DB014D284670BDB6
:103EE80000BEFFFFF0B50C4687B000210546164618
:103EF800FFF778FF80BB03A803F0B3FA21466A688E
:103F080003A803F0B4FB0446D0B905F10804214620
:103F180003A803F0C3FC00281BDA05F1680303A912
:103F2800009305F11402234608466F6804F01DF853
:103F3800044628B93A46314603A803F0B9FB0446BB
:103F480003A803F094FA0CB1A4F58544204607B001
:103F5800F0BD6FF00304F3E7004CF7E780BFFFFF05
:103F68000023C0E90033C1B9194A1A4BDFF88CC0E5
:103F7800C0E90223184B194AC0E904C3184BC0E929
:103F88000623184B036203F17453A3F52303A3F626
:103F980092434362816600207047134B134ADFF84F
:103FA80060C0C0E9022303F1794303F5740303F504
:103FB800016303610E4BC0E905C303F1D14303F567
:103FC800C01303F51E63C3610A4B03620A4BE0E7A3
:103FD80067E6096A85AE67BB3AF54FA57F520E5171
:103FE8008C68059BABD9831F07D57C36D89E05C145
:103FF800310BC0FFA78FF964A44FFABE72F36E3C71
:1040080039590EF72DE9F04FD3B000F108030493A6
:104018004AAB059300F128030693DDE9043253F80F
:10402800040B42F8040B06989842F8D10AAA01F149
:1040380040004B780C781B0443EA0463CC78234394
:104048008C78043143EA0423884242F8043BF0D1D7
:10405800509BA4480093DDE94A72DDE94C310DF12B
:10406800200BDDF844C1DDF838A14F9E0190DE46F3
:104078008146DEF80840D9F800004FEAFA2585EABB
:10408800BA15204485EA7A6505440098009C70407A
:1040980000EA0A006040054447EA02044FEA773024
:1040A800AC4480EAB70007EA02051C4080EAB75032
:1040B8002C430444D9F80450DEF80C000544009859
:1040C8006144A4448AEA060405440C404FEAF120FE
:1040D800744080EAB110254480EA716028444CEAB3
:1040E80007044FEA7C350CEA070885EABC0514404A
:1040F80044EA080485EABC55254405440344D9F834
:104108000840DEF810000444264481EA0A041C40F2
:1041180084EA0A0806EB08044FEAF32686EAB3168F
:1041280086EA736626444CEA05004FEA75340CEAC1
:10413800050884EAB504384040EA080084EAB55422
:10414800044434443244D9F80C00DEF81460304496
:10415800824481EA0300104080EA01080AEB080063
:104168004FEAF22A8AEAB21A8AEA726A824445EA6D
:1041780004064FEA74300AEB070880EAB40005EA3F
:10418800040706EA0C063E4380EAB450DEF81870CD
:104198003044D9F8106050443E4483EA020A31445E
:1041A8000AEA080A4FEAF8268AEA030A86EAB816EB
:1041B800514486EA78660E4444EA00074FEA7031B3
:1041C80004EA000A81EAB0012F4047EA0A0781EAB7
:1041D800B05139443144B444DEF81C70D9F8146045
:1041E80082EA080A3E4433440AEA0C0A4FEAFC26EB
:1041F8008AEA020A86EABC16534486EA7C661E44AA
:10420800AB19009340EA01054FEA713300EA010750
:10421800254083EAB1033D4383EAB1532B44334439
:10422800D9F81850DEF820603544009E154488EA15
:104238000C02324082EA0807EA194FEAF62585EAB5
:10424800B61585EA7665154466194FEA733241EA70
:104258000304044001EA030782EAB3023C4382EA0A
:10426800B35222442A44D9F81C40DEF824502C4486
:10427800A044009C8CEA0404344084EA0C0708EB50
:1042880007044FEAF62888EAB6184FEA723588EA32
:10429800766885EAB20543EA020744440F4085EA96
:1042A800B25803EA02053D4300EB040A0EF1200E62
:1042B80018A84544704504EB050709F120097FF467
:1042C800D8AE0098CDF844C1CDE94A72CDE94C3159
:1042D800CDE90845CDE94F6038A8CDF838A1079059
:1042E80002E000BF5C910008DBF84000DBF80C50EE
:1042F800DBF808404FEAF04E8EEA704E8EEA902EB8
:10430800DBF82C004FEAB548204488EAF5184FEA54
:10431800FA2488EAD50884EABA1486440EEB080021
:1043280084EA7A6E009C03907440009804EA0A04B8
:1043380044400198006C74442044039CCBF84840E6
:104348002044844401EB0C0847EA02004FEA773125
:1043580007EA020481EAB701184081EAB75120430D
:104368000844DBF84410DBF8104084444FEAF1407D
:1043780080EA714080EA9120DBF8301029444FEA46
:10438800B445014485EAF415019885EAD405294421
:10439800406C009DCBF84C108AEA060E0EEA080E17
:1043A80028444FEAF82508448EEA060E85EAB8152F
:1043B80085EA7865864405EB0E00034400934FEACE
:1043C8007C3547EA0C0307EA0C0E85EABC05134066
:1043D80043EA0E0385EABC551D44039BDBF814E051
:1043E80005444FEAF34080EA734080EA9320DBF803
:1043F80034302344034400988AEA080909EA00098A
:1044080001984FEABE44806C84EAFE1484EADE0414
:1044180023443044184489EA0A0981440098CBF8B7
:1044280050304FEAF02484EAB01484EA706404EB54
:10443800090002444CEA05044FEA7536029286EAFE
:10444800B5060CEA05023C4086EAB55614433444E6
:1044580004444FEAF14080EA714080EA9121DBF898
:104468003800DBF81820864471444FEAB24E8EEAD1
:10447800F21E8EEAD20E8E440099029888EA010153
:1044880001400198CBF854E0C66C02985644764433
:1044980081EA08013144029E4FEAF02080EAB61012
:1044A80080EA7660461845EA040005EA04014FEA06
:1044B800743A00EA0C008AEAB40A08434FEAF34166
:1044C8008AEAB45A81EA7341504481EA9323DBF8BB
:1044D8003C10304407EB0609DBF81C600A4413441F
:1044E8004FEAB64282EAF61282EAD6021A440299E2
:1044F800009BCBF8582083EA010707EA09075F40C9
:10450800019B1B6D4FEAF9211344434481EAB91119
:104518001F4481EA7961CB1944EA00074FEA7031F8
:1045280004EA000881EAB0012F4047EA080781EA57
:10453800B05139441944DBF820809C444FEAFE47C7
:10454800DBF8403087EA7E4787EA9E2E9F194FEABC
:10455800B84383EAF81383EAD80377441F44029BDD
:10456800009ECBF85C7083EA090E0EEA0C0E8EEA08
:10457800030E019B5B6D3B4433449E444FEAFC238E
:1045880083EABC1383EA7C6303EB0E06AB19009342
:1045980040EA01054FEA713300EA010E254083EA3B
:1045A800B10345EA0E0583EAB1532B443344DBF8E3
:1045B8004450DBF824E04FEAF24686EA724686EA7F
:1045C800922205EB080616444FEABE4282EAFE1222
:1045D80082EADE021644009ACBF8606089EA0C0889
:1045E80008EA0208019A956D029A35441544009A22
:1045F800009E4FEAF22288EA090882EAB61282EAA5
:1046080076624544154466194FEA733241EA030459
:10461800044082EAB30201EA030844EA080482EA91
:10462800B35222444FEAF74484EA77442A4484EA9E
:104638009727DBF82850039CA6444FEAB54484EA40
:10464800F51484EAD505009C77448CEA040E019C95
:104658003D44E76DCBF864502F440EEA060E4FEA4E
:10466800F6248EEA0C0E4F4484EAB614774484EAA2
:1046780076643C4400EB040A01984FEA723585EAF7
:10468800B205203043EA020785EAB25E0F4003EA2A
:104698000205019007983D430BF1200B75445845DE
:1046A80004EB05077FF420AE0098CDF844C1CDE9AE
:1046B8004F60CDE94A72CDE94C31CDE90845CDF8D6
:1046C80038A1049B05991B6851F8042B05911344E4
:1046D800049A42F8043B069B04929342F1D108A83D
:1046E8004FF49471FFF774FB002053B0BDE8F08FCE
:1046F8008168054A08B51039102301F0EBFA003833
:1047080018BF012008BD00BF5C92000830B50C46F8
:10471800816887B0102302AA1039054601F0BEFA55
:10472800002811DB102202A9284603F09FFF68B178
:1047380003232370A96801230DF1070228392846AD
:1047480001F0ACFA00280BDA01202AE01649102201
:1047580002A801F0C1FD002814BF02230123E8E7E5
:104768009DF8073003F00F021B09627023710122C4
:104778000DF10701284603F079FF10B96378042B7F
:1047880003D90123637000232371AA68A11C203A6E
:10479800284603F093FF0028D6D1E11C284603F0F1
:1047A800E8FF07B030BD00BF5C9200082DE9F04378
:1047B80085B005466946012003F0DFFF044618B1BD
:1047C800FF2005B0BDE8F08302A9022003F0D5FF61
:1047D800012838D129482A46492101F051FA284BA5
:1047E80002938DF80C409DF800509DF808609DF8E4
:1047F80003709DF80B809DF80290224C00222078CF
:10480800294603F047FF18B36078314603F042FFAA
:10481800F0B1A378042B01D0BB4219D1E378042B63
:1048280001D0434514D12379042B0FD16379022B8E
:1048380019D1154A1548492101F022FA6079831ED9
:10484800022BBED9BCE70028CDD0B9E74B45EDD047
:104858000132032A04F10604D1D10D48492101F09F
:104868000FFA0120ADE7032B05D00A4A0A49042BA9
:1048780018BF0A46DEE7094ADCE700BFA69F000822
:104888000301030319A000089C9F0008F19F00087A
:1048980004A00008959F000830960008A19F000812
:1048A8000E4B70B553F82040013053F82060A642F3
:1048B80000D870BDD4E900352846984765B1EB6843
:1048C80030B10028B8BF4042FF28A8BFFF201870A9
:1048D8005A7842F001025A700834E8E76C920008EE
:1048E80070B5054610B90024204670BD0378002B2A
:1048F800F9D00F4A0F4C1646944208D10D4CB442D9
:10490800F1D0204603F05DFF50B91834F7E7204690
:1049180003F057FF10B12368AB42E5D01834EBE73A
:104928002168284601F0CCFC0028EED1DCE700BF66
:10493800908B0008708A000810B54521044603488A
:1049480001F09EF9204603F046FF00BF2BA00008A7
:10495800F7B505460E464FF01003EFF3118783F3C2
:104968001288BFF36F8F00F075FC042D96BF184BAB
:10497800184B53F8253000220446009216482A4660
:10498800452101F07DF93EB1F369C3F308031BB17A
:104998001248452101F074F934B1204603F024FF90
:1049A800034608B1027802B90D4B0E48224645214C
:1049B80001F066F931462846FFF7BEFF87F31188F4
:1049C800BFF36F8F204603B0BDE8F040FEF7D2B8C2
:1049D800849200083FA0000855A0000882A00008A3
:1049E8004DA00008A8A0000830B5002387B0012218
:1049F800CDE904230F22CDE902320D4C0D4A019373
:104A08000D49182304EBC01403FB00234FF49075E1
:104A1800009305FB0011094B4FF48072204600F00B
:104A2800A5F8637B23F00403637307B030BD00BFB0
:104A3800C800002094170020805D0020F58700083A
:104A480008B50A4B012202201A70FFF729FF03F06C
:104A5800C4FF0320FFF724FF00F0BAF8FBF708FDB6
:104A6800034A137B23F00103137308BD4D3500205F
:104A7800480100200248034A0021121A01F05EBCD6
:104A8800C80000205035002080B5DFF8D880A6B0D7
:104A980088F308882D4D2E4E6B69DFF8CC9043F4CF
:104AA800007300246B61F02385F82230EC772C76B4
:104AB8006C76AC7685F820406B6A43F4E0236B6231
:104AC800FEF712F8FDF7F8FC4FF0FF33AB62EB622C
:104AD800FEF7FCF8FEF760F840F20113ADF8243059
:104AE80006ABB360CDE91F44229403F069FE20466B
:104AF800FFF7D6FE0120174DFFF7D2FE00F0F8FAB7
:104B0800154B0593012315490094CDE903434FF450
:104B180020524B46CDE901442846B56100F026F8FD
:104B28006A7B22F004026A730746284603F0A8FE4F
:104B38002046FFF759FF0A4BF3604A463946284694
:104B48003475C6F80480FDF7C5FD00BF00ED00E030
:104B580094170020480100200FA1000860350020AC
:104B6800C8000020C0660020494A00082DE9FF411E
:104B78000E9E0673042646730D9E867300F1580533
:104B88000F46D61DC0E916550C9A002526F00706D3
:104B98002037C0E90655C0E919768560C573C56632
:104BA80006F1200802920B9A019288440A9A009210
:104BB80042460446FDF758FD044B65659B6803B102
:104BC8001B6F2367404604B0BDE8F08194170020AE
:104BD800F0B5224F224D87B03E46BD4205F1300464
:104BE8000BD300F0DBF81E4C1E4F0A25B44221D32C
:104BF80007B0BDE8F04000F05FBA54F8043C0593F4
:104C080054F8103C049354F8143C039354F8183C9B
:104C1800029354F81C3C019354F8203C009354E947
:104C28000A2354E90C01FFF7A1FF54F8303C5D65F5
:104C38002546D2E7626A531C09D022EAE27282FB57
:104C4800052352EA0301206803D100F093F93034B8
:104C5800CCE73946183000F0BBFBF8E7C800002065
:104C6800C8000020A988000838B504464FF0100392
:104C7800EFF3118583F31288BFF36F8F03F05FFEA4
:104C880048B10022826703F0FBFD29460548BDE8CC
:104C9800384000F071B8D4E902329A4218BF0133A3
:104CA800A360F2E74E35002037B514461D464FF095
:104CB8001003EFF3118183F31288BFF36F8F8368BA
:104CC80043B1013B836081F31188BFF36F8F0020EC
:104CD80003B030BD54EA050306D181F31188BFF350
:104CE8006F8F6FF00F00F3E70246CDE900450248E9
:104CF80000F09CF9ECE700BF4E35002010B5084CD9
:104D080023685BB1FEF786FD03462068054A034425
:104D1800BDE810401361002103F03FBE10BD00BF85
:104D2800C01700209417002010B54FF01003EFF3C0
:104D3800118483F31288BFF36F8F0C4B00221A6122
:104D480090424FF00A030A4A03FB00F309DC1360A0
:104D5800084B1960FFF7D2FF84F31188BFF36F8FF8
:104D680010BD022BB8BF0223F1E700BF9417002043
:104D7800C0170020BC17002049B9EFF3058030B9EF
:104D8800054B9A699B689A4201D0FDF719BC81F3DB
:104D98001188BFF36F8F7047941700204FF01003EE
:104DA800EFF3118183F31288BFF36F8F044B9A6876
:104DB800D37B013BD37381F31188BFF36F8F7047A7
:104DC8009417002038B502460C480D4D03F04EFDEF
:104DD800044600B9EC68AB684AB95A7BD20606D1DA
:104DE800A26922B9DA897F2A01D9AB6138BD9C4210
:104DF80001D0FFF783FFAC61F8E700BFB0170020D0
:104E08009417002070B590F90D20437B002A0146C5
:104E180004DA03F07F03437303F000FD4B7B174A6A
:104E280063F07F0310464B7350F81C3F156A8342AA
:104E380008BF0023002B38BF0023CBB191F90E60C7
:104E480093F90E40A6420FD0A41B002C0CDD586825
:104E5800C1E90030016059609068431A5842BDE8C2
:104E680070405841FFF7AEBFAB4201D01B68E4E782
:104E7800C1E9000529601162EEE700BF9417002020
:104E880070B501464FF01003EFF3118483F31288D5
:104E9800BFF36F8F164B174A98681568A8421D46CE
:104EA80006D1FFF72BFF84F31188BFF36F8F70BD16
:104EB80000261660104A1268BAB1C2897F2A14D82F
:104EC800427BD20611D10D4A90F90E6012689642C3
:104ED8000BDB0B4A904208D01A698A4202DCFFF7C2
:104EE80091FFDEE7521A1A61DDE700232B61DAE74A
:104EF80094170020B8170020C0170020BC17002006
:104F0800C800002070B490F90D30427B002B2DDBD7
:104F1800D3062BD183694BBB154962F07F024273DC
:104F28000A460D6A52F81C4F944218BF2346002BBC
:104F380038BF0023ABB190F90E6093F90E40A6423A
:104F48000BD0A41B002C08DD5A68C0E900321060A1
:104F5800586070BC0020FFF735BFAB4201D01B681A
:104F6800E8E7C0E9002528600862F2E770BC7047EE
:104F78009417002010B54FF01002EFF3118482F35C
:104F88001288BFF36F8F427B510704D484F31188D2
:104F9800BFF36F8F10BD22F004024273FFF7B2FF18
:104FA80021460248BDE81040FFF7E6BE4E35002016
:104FB80008B590F90D20437B002A014604DA03F076
:104FC8007F03437303F02AFC044B9868431A584242
:104FD8005841BDE80840FFF7F5BE00BF9417002010
:104FE8002DE9F041064614461D464FF01003EFF335
:104FF800118783F31288BFF36F8F03F073FC87F375
:105008001188BFF36F8F6B1C08BFB4F1FF3F08D046
:1050180022462B4606F118000349BDE8F04100F08E
:10502800D7B9BDE8F08100BFA988000810B5074BC3
:105038009868074B0C4618601146DDE90223FFF714
:10504800CFFF2046BDE81040FDF7BABA94170020FC
:10505800B817002070B50446183003F088FC4FF0EC
:105068001003EFF3118683F31288BFF36F8F94F95F
:105078000D20637B002A05DA03F07F036373204663
:1050880003F0CCFB0B4D637BA86843F010036373FC
:10509800031B58425841FFF795FE86F31188BFF36A
:1050A8006F8FAB68A34203D1BDE8704003F0D4BB57
:1050B80070BD00BF9417002010B54FF01003EFF338
:1050C800118483F31288BFF36F8F084B9A68D37BE0
:1050D8000133D3730020FFF775FE84F31188BFF303
:1050E8006F8FBDE8104003F0B7BB00BF94170020D6
:1050F800044B002103F11C02C3E907220846FFF70D
:1051080013BE00BF94170020F8B54FF01003EFF35B
:10511800118483F31288BFF36F8F1B498868437B20
:1051280003F07F03437303F079FB8A68537B0846D7
:1051380063F07F03537350F81C3F0E6A834208BF25
:105148000023002B38BF0023CBB192F90E7093F9DE
:105158000E50AF420FD0ED1B002D0CDD5968C2E98F
:1051680000310A605A600120FFF72CFE2046BDE896
:10517800F840FDF725BAB34201D01B68E4E7C2E95D
:10518800000632600A62EEE7941700202DE9F0412C
:1051980004460D4654EA050104D1FFF7B5FF002087
:1051A800BDE8F0816FF001010A1A4FF0FF3161EBA1
:1051B8000503012A73F100032ADA03F008FC061933
:1051C8004FF01003EFF3118883F31288BFF36F8F4A
:1051D800114F124BB8681860FFF7EAFEB86810491B
:1051E80022462B46183000F0F3F8BA68537B43F098
:1051F800100353734046FDF7E3F903F0E8FB301A58
:1052080066EB0601012871F10003B8BF0020C7E76B
:105218006FF00106361AD3E794170020B81700205C
:10522800A988000808B50B46013308BFB0F1FF3F55
:1052380006D1074B9868FFF70DFF4FF0FF3008BD08
:10524800FFF7A4FF0A220023C117FAF771FFF6E758
:1052580094170020014B9868704700BF94170020EE
:105268002DE9F04104464FF01003EFF3118683F364
:105278001288BFF36F8F437B1A0705D586F3118811
:10528800BFF36F8FBDE8F08123F0200242F00801E0
:10529800D20920D14173A36813B1204603F0C6FA9E
:1052A80004F1180003F063FB04F158074FF00008FD
:1052B800A56DBD4200D0B5B90120FFF783FD104BA5
:1052C8009B68A342DAD1EFF30583002BD6D1304691
:1052D800FDF776F9D2E703F05F0343F00803437361
:1052E80003F09CFAD7E7284603F0A0FA05F1180066
:1052F80003F03DFBC5F878802846FFF703FED7E7A3
:105308009417002008B50648064A0749121A01F002
:105318000AF8BDE80840054A0549064801F003B8FF
:1053280000000020C800002018A1000800000000AC
:1053380018A1000800000020034B1B680BB9FEF7FA
:1053480069BA0020704700BFC417002030B5036851
:1053580068B10A4A5268904209D043B1D3E904219E
:10536800D0E90445121945EB0101C3E9042142685B
:1053780013605A600023C0E9003330BD900000205C
:1053880038B5114B1C689C4208BF0024FFF7D4FFB6
:105398000546ACB1D4E90401401B61EBE571B0F1FD
:1053A800004F71F100030BDA002871F1000300DAF5
:1053B8000020064B1B6913B19842A8BF184638BD98
:1053C8006FF00040F5E700BF900000209417002020
:1053D800B3F1FF3F08BFB2F1FF3F2DE9F74F044695
:1053E80092469B4673D081604FF01003EFF311850E
:1053F80083F31288BFF36F8F6FF00103B3EB0A08D2
:105408004FF0FF3262EB0B09B8F1000F79F10001A0
:105418001CDB3048D0E900105B1A62EB0002B3EBEA
:105428000A0662EB0B07012E77F10003BCBF0126C9
:105438000027C4E90467284AD2E9003C93421ED1F8
:10544800C4E9002CCCF8004054602DE0FFF774FF4D
:105458001AF1010300934BF100030193DDE90023E6
:10546800121843EBE073C4E90423E4E7B6EB080041
:1054780067EB09016345C4E90401E1D01B68002B0F
:10548800DED0D3E90489D4E90467464577EB0901FE
:10549800ECDAB8EB060069EB0701C3E904015968C7
:1054A800C4E900310C605C60136893420BD09C42E5
:1054B80009D1FFF765FF18B1084B1B69834202D079
:1054C8000021FEF73BF985F31188BFF36F8F03B016
:1054D800BDE8F08FC801002090000020941700203C
:1054E8002DE9F74F0646FFF7CBFC4FF01003EFF31B
:1054F800118483F31288BFF36F8F2C4DDFF8B0A0AF
:10550800DFF8B0B02E605146D5F800C0DBF80000D7
:105518006246D3175845DAE90089CDE900230DD052
:1055280060B1D0E90467B445BB411EDA009BB6EB15
:10553800030C019B67EB0306C0E904C6009B13EB51
:105548000802019B4FF0000643EB0903C1E9002361
:105558002E60FFF715FF3146FEF7F0F884F3118847
:10556800BFF36F8F03B0BDE8F08F18EB06084FF05C
:1055780000024FF0000349EBE679C0E90423ACEBE5
:105588000606CAE900892E60FFF7E0FE84F3118859
:10559800BFF36F8F836898474FF01003EFF31184C0
:1055A80083F31288BFF36F8F0149ADE7C41700205A
:1055B800C80100209000002010B54FF01003EFF351
:1055C800118483F31288BFF36F8FFEF723F9064B1C
:1055D800D3E90023121843F1000384F31188BFF3C1
:1055E8006F8F1046194610BDC801002038B5044613
:1055F80078B1FEF72DF905460648074AA4FB0001D5
:105608000023FAF795FD0446FEF722F9431BA3424F
:10561800FAD338BD006CDC0240420F0003691B68F6
:105628009B0648BF81F0010119B18368DB6820211E
:10563800184783681B69FAE7022994BF481C6FF072
:1056480015007047002070472DE9F7430E461746AE
:105658009946044628B94FF0FF38404603B0BDE8E4
:10566800F0830029F7D0002AF5D0CB680D891D44B6
:1056780004230DEB03022946384600F00FFB804651
:105688000028E8D1BDF80410738946F60812914243
:1056980023D1BDF806109942DDD104230DEB030296
:1056A8002944384600F0FAFA0028D4D1BDF804207D
:1056B80046F607139A42CED19DF82830A372738913
:1056C800BDF80620A4F808902B44E3600435134481
:1056D800C4E9006763612561BFE7002BE6D0BAE73C
:1056E8002DE9F7430F4690461E46044620B94FF071
:1056F800FF3003B0BDE8F0830368002BF7D04368A0
:10570800002BF4D04FF6FF79D4E904239A4216D23D
:1057180023685B8923B1E368934204BF04332361A0
:105728000423216960680DEB030200F0B7FA002832
:10573800DDD1A37A256923B1E368AB4201D8012002
:10574800D7E72189BDF80630494503F1040203D0A3
:10575800BDF804C08C450BD116B1BDF804103180DA
:1057680004353D60A8F80030236913442361C0E77D
:1057780015442561C8E700F0AFBD4FF4C073584326
:10578800303070470878032806D0013801288CBFCC
:105798004FF0FF304FF4C070704710B5044600F06A
:1057A800CCFA2378032B18BF4FF4C072C3B208BFDA
:1057B80003EB4303A06818BF53433033C01A10BD2E
:1057C80081680122203902F0C5BF13B50446019152
:1057D80002F05DFF0423A0F108010DEB030220464F
:1057E80002F089FF02B010BDF7B5054600200C464F
:1057F8001746FFF721FF6946C0B2FCF749F930B1F7
:105808000125009800F049FA284603B0F0BD2C2184
:1058180001FB045400982189E368CE1804230DEB9A
:105828000302314600F03AFA05460028E8D1BDF8EF
:105838000420648946F608139A421AD1BDF8063046
:105848009C4201D00325DCE7042300980DEB0302FA
:10585800A11900F023FA0028D2D1BDF8042046F699
:1058680007139A42EED1BDF806102144314439603D
:10587800C7E7002CF1D0E5E7F8B513460F46164602
:1058880000210246054600F056F9044650B9334651
:1058980005F12C020121284600F04DF910B1002F26
:1058A80018BF04462046F8BD73B5426A04468025F1
:1058B80001A901200195FCF709F9B0B9019B226DF6
:1058C800A36201A902200195FCF700F918B1092586
:1058D800284602B070BD019BE26D636501A90320F3
:1058E8000195FCF7F3F8054608B10125F0E7019B9F
:1058F8002366206A00F021FA0646A06D00F01DFA22
:1059080086422CBFA666A066E2E70123036003F186
:10591800012343600023C0E9023370474379012B18
:1059280007D10368012B04D10079431E584258411E
:105938007047002070477FB58B79002B06460D46CF
:1059480014BF0320012001A9FCF7A2F838BB019875
:10595800FFF723FFB16E0446284600F007F9044418
:10596800019800F0EAF90646019800F0EFF90822DC
:1059780001460DEB020000F0E1FC2B798DF80830B0
:1059880021460198F3B202AA00F0A4F9041E019876
:1059980018BF012400F081F9204604B070BD01242D
:1059A800FAE700F0B3B92DE9F8430E46002107469F
:1059B8000846FFF741FE012104460020FFF73CFEA0
:1059C80033789C4221D0984221D101242C2303FB17
:1059D8000474B86EA56AFFF7D0FE013D07464FF084
:1059E8000008636A03EBC50253F83510D2F8049037
:1059F8001B684A46C91A3046C844FFF7D2FFB84563
:105A080005F1FF35EDD3BDE8F8830024DEE701207A
:105A1800F9E737B515460C460220694602F0ADFE97
:105A2800E979012903D00022204602F0BAFE9DF848
:105A38000330012B02D1204602F096FEA9682046C9
:105A4800FFF7C3FE2046FEF753FE002003B030BD2B
:105A580073B50D460646FBF7BFFA01280446E86011
:105A680008D0022831D000280CBF0446072420465D
:105A780002B070BD032001A9FCF70AF848BB0198E1
:105A88002A463146FBF7F2F90446D0B9019802F0EC
:105A9800FEFD012301460DF10302019800F0FEF816
:105AA8000446A0B9019801220DF1030102F000FE9D
:105AB80010B101238DF803309DF8033003F00F0374
:105AC800EB71019800F0E9F8D1E70120D3E7012450
